{
  "_format": "hh-sol-artifact-1",
  "contractName": "Nevo",
  "sourceName": "contracts/Nevo.sol",
  "abi": [
    {
      "inputs": [
        {
          "internalType": "address",
          "name": "_usdc",
          "type": "address"
        }
      ],
      "stateMutability": "nonpayable",
      "type": "constructor"
    },
    {
      "anonymous": false,
      "inputs": [
        {
          "indexed": true,
          "internalType": "uint256",
          "name": "id",
          "type": "uint256"
        },
        {
          "indexed": true,
          "internalType": "address",
          "name": "creator",
          "type": "address"
        },
        {
          "indexed": false,
          "internalType": "uint256",
          "name": "total",
          "type": "uint256"
        },
        {
          "indexed": false,
          "internalType": "uint256",
          "name": "dueDate",
          "type": "uint256"
        }
      ],
      "name": "InvoiceCreated",
      "type": "event"
    },
    {
      "anonymous": false,
      "inputs": [
        {
          "indexed": true,
          "internalType": "uint256",
          "name": "id",
          "type": "uint256"
        },
        {
          "indexed": true,
          "internalType": "address",
          "name": "deleter",
          "type": "address"
        }
      ],
      "name": "InvoiceDeleted",
      "type": "event"
    },
    {
      "anonymous": false,
      "inputs": [
        {
          "indexed": true,
          "internalType": "uint256",
          "name": "id",
          "type": "uint256"
        },
        {
          "indexed": true,
          "internalType": "address",
          "name": "payer",
          "type": "address"
        },
        {
          "indexed": false,
          "internalType": "uint256",
          "name": "amount",
          "type": "uint256"
        },
        {
          "indexed": false,
          "internalType": "uint256",
          "name": "fee",
          "type": "uint256"
        }
      ],
      "name": "InvoicePaid",
      "type": "event"
    },
    {
      "inputs": [
        {
          "internalType": "string",
          "name": "_title",
          "type": "string"
        },
        {
          "internalType": "string",
          "name": "_clientName",
          "type": "string"
        },
        {
          "internalType": "string[]",
          "name": "_items",
          "type": "string[]"
        },
        {
          "internalType": "uint256[]",
          "name": "_prices",
          "type": "uint256[]"
        },
        {
          "internalType": "address",
          "name": "_creator",
          "type": "address"
        },
        {
          "internalType": "uint256",
          "name": "_dueDate",
          "type": "uint256"
        }
      ],
      "name": "createInvoice",
      "outputs": [],
      "stateMutability": "nonpayable",
      "type": "function"
    },
    {
      "inputs": [
        {
          "internalType": "uint256",
          "name": "_id",
          "type": "uint256"
        }
      ],
      "name": "deleteInvoice",
      "outputs": [],
      "stateMutability": "nonpayable",
      "type": "function"
    },
    {
      "inputs": [],
      "name": "feePercentage",
      "outputs": [
        {
          "internalType": "uint256",
          "name": "",
          "type": "uint256"
        }
      ],
      "stateMutability": "view",
      "type": "function"
    },
    {
      "inputs": [
        {
          "internalType": "uint256",
          "name": "_id",
          "type": "uint256"
        }
      ],
      "name": "getInvoice",
      "outputs": [
        {
          "internalType": "string",
          "name": "title",
          "type": "string"
        },
        {
          "internalType": "string",
          "name": "clientName",
          "type": "string"
        },
        {
          "internalType": "string[]",
          "name": "items",
          "type": "string[]"
        },
        {
          "internalType": "uint256[]",
          "name": "prices",
          "type": "uint256[]"
        },
        {
          "internalType": "uint256",
          "name": "total",
          "type": "uint256"
        },
        {
          "internalType": "address",
          "name": "creator",
          "type": "address"
        },
        {
          "internalType": "uint256",
          "name": "dueDate",
          "type": "uint256"
        },
        {
          "internalType": "enum Nevo.InvoiceStatus",
          "name": "status",
          "type": "uint8"
        }
      ],
      "stateMutability": "view",
      "type": "function"
    },
    {
      "inputs": [
        {
          "internalType": "uint256",
          "name": "_id",
          "type": "uint256"
        }
      ],
      "name": "getInvoiceStatus",
      "outputs": [
        {
          "internalType": "enum Nevo.InvoiceStatus",
          "name": "",
          "type": "uint8"
        }
      ],
      "stateMutability": "view",
      "type": "function"
    },
    {
      "inputs": [
        {
          "internalType": "address",
          "name": "user",
          "type": "address"
        }
      ],
      "name": "getUserInvoiceCount",
      "outputs": [
        {
          "internalType": "uint256",
          "name": "",
          "type": "uint256"
        }
      ],
      "stateMutability": "view",
      "type": "function"
    },
    {
      "inputs": [
        {
          "internalType": "address",
          "name": "user",
          "type": "address"
        }
      ],
      "name": "getUserInvoices",
      "outputs": [
        {
          "components": [
            {
              "internalType": "uint256",
              "name": "id",
              "type": "uint256"
            },
            {
              "internalType": "string",
              "name": "title",
              "type": "string"
            },
            {
              "internalType": "string",
              "name": "clientName",
              "type": "string"
            },
            {
              "internalType": "string[]",
              "name": "items",
              "type": "string[]"
            },
            {
              "internalType": "uint256[]",
              "name": "prices",
              "type": "uint256[]"
            },
            {
              "internalType": "uint256",
              "name": "total",
              "type": "uint256"
            },
            {
              "internalType": "address",
              "name": "creator",
              "type": "address"
            },
            {
              "internalType": "uint256",
              "name": "dueDate",
              "type": "uint256"
            },
            {
              "internalType": "enum Nevo.InvoiceStatus",
              "name": "status",
              "type": "uint8"
            }
          ],
          "internalType": "struct Nevo.Invoice[]",
          "name": "",
          "type": "tuple[]"
        }
      ],
      "stateMutability": "view",
      "type": "function"
    },
    {
      "inputs": [
        {
          "internalType": "address",
          "name": "user",
          "type": "address"
        }
      ],
      "name": "getUserPendingInvoiceCount",
      "outputs": [
        {
          "internalType": "uint256",
          "name": "count",
          "type": "uint256"
        }
      ],
      "stateMutability": "view",
      "type": "function"
    },
    {
      "inputs": [],
      "name": "invoiceCount",
      "outputs": [
        {
          "internalType": "uint256",
          "name": "",
          "type": "uint256"
        }
      ],
      "stateMutability": "view",
      "type": "function"
    },
    {
      "inputs": [
        {
          "internalType": "uint256",
          "name": "",
          "type": "uint256"
        }
      ],
      "name": "invoices",
      "outputs": [
        {
          "internalType": "uint256",
          "name": "id",
          "type": "uint256"
        },
        {
          "internalType": "string",
          "name": "title",
          "type": "string"
        },
        {
          "internalType": "string",
          "name": "clientName",
          "type": "string"
        },
        {
          "internalType": "uint256",
          "name": "total",
          "type": "uint256"
        },
        {
          "internalType": "address",
          "name": "creator",
          "type": "address"
        },
        {
          "internalType": "uint256",
          "name": "dueDate",
          "type": "uint256"
        },
        {
          "internalType": "enum Nevo.InvoiceStatus",
          "name": "status",
          "type": "uint8"
        }
      ],
      "stateMutability": "view",
      "type": "function"
    },
    {
      "inputs": [],
      "name": "owner",
      "outputs": [
        {
          "internalType": "address",
          "name": "",
          "type": "address"
        }
      ],
      "stateMutability": "view",
      "type": "function"
    },
    {
      "inputs": [
        {
          "internalType": "uint256",
          "name": "_id",
          "type": "uint256"
        }
      ],
      "name": "payInvoice",
      "outputs": [],
      "stateMutability": "nonpayable",
      "type": "function"
    },
    {
      "inputs": [
        {
          "internalType": "uint256",
          "name": "_newFee",
          "type": "uint256"
        }
      ],
      "name": "updateFeePercentage",
      "outputs": [],
      "stateMutability": "nonpayable",
      "type": "function"
    },
    {
      "inputs": [],
      "name": "usdc",
      "outputs": [
        {
          "internalType": "contract IERC20",
          "name": "",
          "type": "address"
        }
      ],
      "stateMutability": "view",
      "type": "function"
    },
    {
      "inputs": [],
      "name": "withdrawFees",
      "outputs": [],
      "stateMutability": "nonpayable",
      "type": "function"
    }
  ],
  "bytecode": "0x608060405260028055600060045534801561001957600080fd5b506040516135b53803806135b5833981810160405281019061003b9190610125565b336000806101000a81548173ffffffffffffffffffffffffffffffffffffffff021916908373ffffffffffffffffffffffffffffffffffffffff16021790555080600160006101000a81548173ffffffffffffffffffffffffffffffffffffffff021916908373ffffffffffffffffffffffffffffffffffffffff16021790555050610152565b600080fd5b600073ffffffffffffffffffffffffffffffffffffffff82169050919050565b60006100f2826100c7565b9050919050565b610102816100e7565b811461010d57600080fd5b50565b60008151905061011f816100f9565b92915050565b60006020828403121561013b5761013a6100c2565b5b600061014984828501610110565b91505092915050565b613454806101616000396000f3fe608060405234801561001057600080fd5b50600436106100f55760003560e01c8063476343ee116100975780638da5cb5b116100665780638da5cb5b146102a5578063a001ecdd146102c3578063ac60a6cd146102e1578063d3b6b3a1146102fd576100f5565b8063476343ee1461022d5780634e6d1405146102375780636cad3fb01461026d57806380c8610f14610289576100f5565b806324d3b3e2116100d357806324d3b3e21461017857806338e2d077146101a85780633a23cc0a146101d85780633e413bee1461020f576100f5565b80631346f0c4146100fa578063178c5b521461011857806321e2a79114610148575b600080fd5b610102610319565b60405161010f9190611c9f565b60405180910390f35b610132600480360381019061012d9190611cfa565b61031f565b60405161013f9190611d9e565b60405180910390f35b610162600480360381019061015d9190611e17565b61034c565b60405161016f9190611c9f565b60405180910390f35b610192600480360381019061018d9190611e17565b610398565b60405161019f919061220e565b60405180910390f35b6101c260048036038101906101bd9190611e17565b61082c565b6040516101cf9190611c9f565b60405180910390f35b6101f260048036038101906101ed9190611cfa565b61090e565b60405161020698979695949392919061237e565b60405180910390f35b610217610bdb565b6040516102249190612477565b60405180910390f35b610235610c01565b005b610251600480360381019061024c9190611cfa565b610e31565b6040516102649796959493929190612492565b60405180910390f35b61028760048036038101906102829190611cfa565b610fb0565b005b6102a3600480360381019061029e9190611cfa565b61108c565b005b6102ad611322565b6040516102ba919061250f565b60405180910390f35b6102cb611346565b6040516102d89190611c9f565b60405180910390f35b6102fb60048036038101906102f69190611cfa565b61134c565b005b61031760048036038101906103129190612808565b6117c7565b005b60045481565b60006003600083815260200190815260200160002060080160009054906101000a900460ff169050919050565b6000600560008373ffffffffffffffffffffffffffffffffffffffff1673ffffffffffffffffffffffffffffffffffffffff168152602001908152602001600020805490509050919050565b60606000600560008473ffffffffffffffffffffffffffffffffffffffff1673ffffffffffffffffffffffffffffffffffffffff168152602001908152602001600020905060008180549050905060008167ffffffffffffffff81111561040257610401612534565b5b60405190808252806020026020018201604052801561043b57816020015b610428611aeb565b8152602001906001900390816104205790505b50905060005b828110156108205760038081111561045c5761045b611d27565b5b6003600086848154811061047357610472612905565b5b9060005260206000200154815260200190815260200160002060080160009054906101000a900460ff1660038111156104af576104ae611d27565b5b1461081357600360008583815481106104cb576104ca612905565b5b90600052602060002001548152602001908152602001600020604051806101200160405290816000820154815260200160018201805461050a90612963565b80601f016020809104026020016040519081016040528092919081815260200182805461053690612963565b80156105835780601f1061055857610100808354040283529160200191610583565b820191906000526020600020905b81548152906001019060200180831161056657829003601f168201915b5050505050815260200160028201805461059c90612963565b80601f01602080910402602001604051908101604052809291908181526020018280546105c890612963565b80156106155780601f106105ea57610100808354040283529160200191610615565b820191906000526020600020905b8154815290600101906020018083116105f857829003601f168201915b5050505050815260200160038201805480602002602001604051908101604052809291908181526020016000905b828210156106ef57838290600052602060002001805461066290612963565b80601f016020809104026020016040519081016040528092919081815260200182805461068e90612963565b80156106db5780601f106106b0576101008083540402835291602001916106db565b820191906000526020600020905b8154815290600101906020018083116106be57829003601f168201915b505050505081526020019060010190610643565b5050505081526020016004820180548060200260200160405190810160405280929190818152602001828054801561074657602002820191906000526020600020905b815481526020019060010190808311610732575b50505050508152602001600582015481526020016006820160009054906101000a900473ffffffffffffffffffffffffffffffffffffffff1673ffffffffffffffffffffffffffffffffffffffff1673ffffffffffffffffffffffffffffffffffffffff168152602001600782015481526020016008820160009054906101000a900460ff1660038111156107de576107dd611d27565b5b60038111156107f0576107ef611d27565b5b8152505082828151811061080757610806612905565b5b60200260200101819052505b8080600101915050610441565b50809350505050919050565b600080600560008473ffffffffffffffffffffffffffffffffffffffff1673ffffffffffffffffffffffffffffffffffffffff168152602001908152602001600020905060005b8180549050811015610907576000600381111561089357610892611d27565b5b600360008484815481106108aa576108a9612905565b5b9060005260206000200154815260200190815260200160002060080160009054906101000a900460ff1660038111156108e6576108e5611d27565b5b036108fa5782806108f6906129c3565b9350505b8080600101915050610873565b5050919050565b6060806060806000806000806000600360008b815260200190815260200160002090508060010181600201826003018360040184600501548560060160009054906101000a900473ffffffffffffffffffffffffffffffffffffffff1686600701548760080160009054906101000a900460ff1687805461098e90612963565b80601f01602080910402602001604051908101604052809291908181526020018280546109ba90612963565b8015610a075780601f106109dc57610100808354040283529160200191610a07565b820191906000526020600020905b8154815290600101906020018083116109ea57829003601f168201915b50505050509750868054610a1a90612963565b80601f0160208091040260200160405190810160405280929190818152602001828054610a4690612963565b8015610a935780601f10610a6857610100808354040283529160200191610a93565b820191906000526020600020905b815481529060010190602001808311610a7657829003601f168201915b5050505050965085805480602002602001604051908101604052809291908181526020016000905b82821015610b67578382906000526020600020018054610ada90612963565b80601f0160208091040260200160405190810160405280929190818152602001828054610b0690612963565b8015610b535780601f10610b2857610100808354040283529160200191610b53565b820191906000526020600020905b815481529060010190602001808311610b3657829003601f168201915b505050505081526020019060010190610abb565b50505050955084805480602002602001604051908101604052809291908181526020018280548015610bb857602002820191906000526020600020905b815481526020019060010190808311610ba4575b505050505094509850985098509850985098509850985050919395975091939597565b600160009054906101000a900473ffffffffffffffffffffffffffffffffffffffff1681565b60008054906101000a900473ffffffffffffffffffffffffffffffffffffffff1673ffffffffffffffffffffffffffffffffffffffff163373ffffffffffffffffffffffffffffffffffffffff1614610c8f576040517f08c379a0000000000000000000000000000000000000000000000000000000008152600401610c8690612a57565b60405180910390fd5b6000600160009054906101000a900473ffffffffffffffffffffffffffffffffffffffff1673ffffffffffffffffffffffffffffffffffffffff166370a08231306040518263ffffffff1660e01b8152600401610cec919061250f565b602060405180830381865afa158015610d09573d6000803e3d6000fd5b505050506040513d601f19601f82011682018060405250810190610d2d9190612a8c565b9050600160009054906101000a900473ffffffffffffffffffffffffffffffffffffffff1673ffffffffffffffffffffffffffffffffffffffff1663a9059cbb60008054906101000a900473ffffffffffffffffffffffffffffffffffffffff16836040518363ffffffff1660e01b8152600401610dac929190612ab9565b6020604051808303816000875af1158015610dcb573d6000803e3d6000fd5b505050506040513d601f19601f82011682018060405250810190610def9190612b1a565b610e2e576040517f08c379a0000000000000000000000000000000000000000000000000000000008152600401610e2590612b93565b60405180910390fd5b50565b6003602052806000526040600020600091509050806000015490806001018054610e5a90612963565b80601f0160208091040260200160405190810160405280929190818152602001828054610e8690612963565b8015610ed35780601f10610ea857610100808354040283529160200191610ed3565b820191906000526020600020905b815481529060010190602001808311610eb657829003601f168201915b505050505090806002018054610ee890612963565b80601f0160208091040260200160405190810160405280929190818152602001828054610f1490612963565b8015610f615780601f10610f3657610100808354040283529160200191610f61565b820191906000526020600020905b815481529060010190602001808311610f4457829003601f168201915b5050505050908060050154908060060160009054906101000a900473ffffffffffffffffffffffffffffffffffffffff16908060070154908060080160009054906101000a900460ff16905087565b60008054906101000a900473ffffffffffffffffffffffffffffffffffffffff1673ffffffffffffffffffffffffffffffffffffffff163373ffffffffffffffffffffffffffffffffffffffff161461103e576040517f08c379a000000000000000000000000000000000000000000000000000000000815260040161103590612a57565b60405180910390fd5b600a811115611082576040517f08c379a000000000000000000000000000000000000000000000000000000000815260040161107990612bff565b60405180910390fd5b8060028190555050565b60006003600083815260200190815260200160002090503373ffffffffffffffffffffffffffffffffffffffff168160060160009054906101000a900473ffffffffffffffffffffffffffffffffffffffff1673ffffffffffffffffffffffffffffffffffffffff1614611135576040517f08c379a000000000000000000000000000000000000000000000000000000000815260040161112c90612c6b565b60405180910390fd5b6000600381111561114957611148611d27565b5b8160080160009054906101000a900460ff16600381111561116d5761116c611d27565b5b146111ad576040517f08c379a00000000000000000000000000000000000000000000000000000000081526004016111a490612cfd565b60405180910390fd5b60038160080160006101000a81548160ff021916908360038111156111d5576111d4611d27565b5b02179055506000600560003373ffffffffffffffffffffffffffffffffffffffff1673ffffffffffffffffffffffffffffffffffffffff168152602001908152602001600020905060005b81805490508110156112d857838282815481106112405761123f612905565b5b9060005260206000200154036112cb5781600183805490506112629190612d1d565b8154811061127357611272612905565b5b906000526020600020015482828154811061129157611290612905565b5b9060005260206000200181905550818054806112b0576112af612d51565b5b600190038181906000526020600020016000905590556112d8565b8080600101915050611220565b503373ffffffffffffffffffffffffffffffffffffffff16837f5c532e2df18d0318600de3484942558c1de75fa37990c7b6e743e33d11bfc10560405160405180910390a3505050565b60008054906101000a900473ffffffffffffffffffffffffffffffffffffffff1681565b60025481565b60006003600083815260200190815260200160002090506000600381111561137757611376611d27565b5b8160080160009054906101000a900460ff16600381111561139b5761139a611d27565b5b146113db576040517f08c379a00000000000000000000000000000000000000000000000000000000081526004016113d290612dcc565b60405180910390fd5b8060070154421115611422576040517f08c379a000000000000000000000000000000000000000000000000000000000815260040161141990612e38565b60405180910390fd5b6000606460025483600501546114389190612e58565b6114429190612ec9565b905060008183600501546114569190612d1d565b9050600160009054906101000a900473ffffffffffffffffffffffffffffffffffffffff1673ffffffffffffffffffffffffffffffffffffffff166323b872dd333086600501546040518463ffffffff1660e01b81526004016114bb93929190612efa565b6020604051808303816000875af11580156114da573d6000803e3d6000fd5b505050506040513d601f19601f820116820180604052508101906114fe9190612b1a565b61153d576040517f08c379a000000000000000000000000000000000000000000000000000000000815260040161153490612f7d565b60405180910390fd5b600160009054906101000a900473ffffffffffffffffffffffffffffffffffffffff1673ffffffffffffffffffffffffffffffffffffffff1663a9059cbb8460060160009054906101000a900473ffffffffffffffffffffffffffffffffffffffff16836040518363ffffffff1660e01b81526004016115be929190612ab9565b6020604051808303816000875af11580156115dd573d6000803e3d6000fd5b505050506040513d601f19601f820116820180604052508101906116019190612b1a565b611640576040517f08c379a000000000000000000000000000000000000000000000000000000000815260040161163790612fe9565b60405180910390fd5b600160009054906101000a900473ffffffffffffffffffffffffffffffffffffffff1673ffffffffffffffffffffffffffffffffffffffff1663a9059cbb60008054906101000a900473ffffffffffffffffffffffffffffffffffffffff16846040518363ffffffff1660e01b81526004016116bd929190612ab9565b6020604051808303816000875af11580156116dc573d6000803e3d6000fd5b505050506040513d601f19601f820116820180604052508101906117009190612b1a565b61173f576040517f08c379a000000000000000000000000000000000000000000000000000000000815260040161173690613055565b60405180910390fd5b60018360080160006101000a81548160ff0219169083600381111561176757611766611d27565b5b02179055503373ffffffffffffffffffffffffffffffffffffffff16847fad182a582b60dfb698b15ddbe85c01fe3d9c2161ef730aa75fbc0688d7a0ec3d8560050154856040516117b9929190613075565b60405180910390a350505050565b825184511461180b576040517f08c379a0000000000000000000000000000000000000000000000000000000008152600401611802906130ea565b60405180910390fd5b42811161184d576040517f08c379a000000000000000000000000000000000000000000000000000000000815260040161184490613156565b60405180910390fd5b6000805b845181101561188f5784818151811061186d5761186c612905565b5b6020026020010151826118809190613176565b91508080600101915050611851565b50600460008154809291906118a3906129c3565b919050555060405180610120016040528060045481526020018881526020018781526020018681526020018581526020018281526020018473ffffffffffffffffffffffffffffffffffffffff168152602001838152602001600060038111156119105761190f611d27565b5b815250600360006004548152602001908152602001600020600082015181600001556020820151816001019081611947919061334c565b50604082015181600201908161195d919061334c565b50606082015181600301908051906020019061197a929190611b5f565b506080820151816004019080519060200190611997929190611bb8565b5060a0820151816005015560c08201518160060160006101000a81548173ffffffffffffffffffffffffffffffffffffffff021916908373ffffffffffffffffffffffffffffffffffffffff16021790555060e082015181600701556101008201518160080160006101000a81548160ff02191690836003811115611a1f57611a1e611d27565b5b0217905550905050600560008473ffffffffffffffffffffffffffffffffffffffff1673ffffffffffffffffffffffffffffffffffffffff16815260200190815260200160002060045490806001815401808255809150506001900390600052602060002001600090919091909150553373ffffffffffffffffffffffffffffffffffffffff166004547fcf3cabbef1a922985e239e7d4b3806775d07a76cecd7ef9311a73e709bb7536a8385604051611ada929190613075565b60405180910390a350505050505050565b604051806101200160405280600081526020016060815260200160608152602001606081526020016060815260200160008152602001600073ffffffffffffffffffffffffffffffffffffffff1681526020016000815260200160006003811115611b5957611b58611d27565b5b81525090565b828054828255906000526020600020908101928215611ba7579160200282015b82811115611ba6578251829081611b96919061334c565b5091602001919060010190611b7f565b5b509050611bb49190611c05565b5090565b828054828255906000526020600020908101928215611bf4579160200282015b82811115611bf3578251825591602001919060010190611bd8565b5b509050611c019190611c29565b5090565b5b80821115611c255760008181611c1c9190611c46565b50600101611c06565b5090565b5b80821115611c42576000816000905550600101611c2a565b5090565b508054611c5290612963565b6000825580601f10611c645750611c83565b601f016020900490600052602060002090810190611c829190611c29565b5b50565b6000819050919050565b611c9981611c86565b82525050565b6000602082019050611cb46000830184611c90565b92915050565b6000604051905090565b600080fd5b600080fd5b611cd781611c86565b8114611ce257600080fd5b50565b600081359050611cf481611cce565b92915050565b600060208284031215611d1057611d0f611cc4565b5b6000611d1e84828501611ce5565b91505092915050565b7f4e487b7100000000000000000000000000000000000000000000000000000000600052602160045260246000fd5b60048110611d6757611d66611d27565b5b50565b6000819050611d7882611d56565b919050565b6000611d8882611d6a565b9050919050565b611d9881611d7d565b82525050565b6000602082019050611db36000830184611d8f565b92915050565b600073ffffffffffffffffffffffffffffffffffffffff82169050919050565b6000611de482611db9565b9050919050565b611df481611dd9565b8114611dff57600080fd5b50565b600081359050611e1181611deb565b92915050565b600060208284031215611e2d57611e2c611cc4565b5b6000611e3b84828501611e02565b91505092915050565b600081519050919050565b600082825260208201905092915050565b6000819050602082019050919050565b611e7981611c86565b82525050565b600081519050919050565b600082825260208201905092915050565b60005b83811015611eb9578082015181840152602081019050611e9e565b60008484015250505050565b6000601f19601f8301169050919050565b6000611ee182611e7f565b611eeb8185611e8a565b9350611efb818560208601611e9b565b611f0481611ec5565b840191505092915050565b600081519050919050565b600082825260208201905092915050565b6000819050602082019050919050565b6000611f478383611ed6565b905092915050565b6000602082019050919050565b6000611f6782611f0f565b611f718185611f1a565b935083602082028501611f8385611f2b565b8060005b85811015611fbf5784840389528151611fa08582611f3b565b9450611fab83611f4f565b925060208a01995050600181019050611f87565b50829750879550505050505092915050565b600081519050919050565b600082825260208201905092915050565b6000819050602082019050919050565b60006120098383611e70565b60208301905092915050565b6000602082019050919050565b600061202d82611fd1565b6120378185611fdc565b935061204283611fed565b8060005b8381101561207357815161205a8882611ffd565b975061206583612015565b925050600181019050612046565b5085935050505092915050565b61208981611dd9565b82525050565b61209881611d7d565b82525050565b6000610120830160008301516120b76000860182611e70565b50602083015184820360208601526120cf8282611ed6565b915050604083015184820360408601526120e98282611ed6565b915050606083015184820360608601526121038282611f5c565b9150506080830151848203608086015261211d8282612022565b91505060a083015161213260a0860182611e70565b5060c083015161214560c0860182612080565b5060e083015161215860e0860182611e70565b5061010083015161216d61010086018261208f565b508091505092915050565b6000612184838361209e565b905092915050565b6000602082019050919050565b60006121a482611e44565b6121ae8185611e4f565b9350836020820285016121c085611e60565b8060005b858110156121fc57848403895281516121dd8582612178565b94506121e88361218c565b925060208a019950506001810190506121c4565b50829750879550505050505092915050565b600060208201905081810360008301526122288184612199565b905092915050565b600082825260208201905092915050565b600061224c82611e7f565b6122568185612230565b9350612266818560208601611e9b565b61226f81611ec5565b840191505092915050565b600082825260208201905092915050565b600061229682611f0f565b6122a0818561227a565b9350836020820285016122b285611f2b565b8060005b858110156122ee57848403895281516122cf8582611f3b565b94506122da83611f4f565b925060208a019950506001810190506122b6565b50829750879550505050505092915050565b600082825260208201905092915050565b600061231c82611fd1565b6123268185612300565b935061233183611fed565b8060005b838110156123625781516123498882611ffd565b975061235483612015565b925050600181019050612335565b5085935050505092915050565b61237881611dd9565b82525050565b6000610100820190508181036000830152612399818b612241565b905081810360208301526123ad818a612241565b905081810360408301526123c1818961228b565b905081810360608301526123d58188612311565b90506123e46080830187611c90565b6123f160a083018661236f565b6123fe60c0830185611c90565b61240b60e0830184611d8f565b9998505050505050505050565b6000819050919050565b600061243d61243861243384611db9565b612418565b611db9565b9050919050565b600061244f82612422565b9050919050565b600061246182612444565b9050919050565b61247181612456565b82525050565b600060208201905061248c6000830184612468565b92915050565b600060e0820190506124a7600083018a611c90565b81810360208301526124b98189612241565b905081810360408301526124cd8188612241565b90506124dc6060830187611c90565b6124e9608083018661236f565b6124f660a0830185611c90565b61250360c0830184611d8f565b98975050505050505050565b6000602082019050612524600083018461236f565b92915050565b600080fd5b600080fd5b7f4e487b7100000000000000000000000000000000000000000000000000000000600052604160045260246000fd5b61256c82611ec5565b810181811067ffffffffffffffff8211171561258b5761258a612534565b5b80604052505050565b600061259e611cba565b90506125aa8282612563565b919050565b600067ffffffffffffffff8211156125ca576125c9612534565b5b6125d382611ec5565b9050602081019050919050565b82818337600083830152505050565b60006126026125fd846125af565b612594565b90508281526020810184848401111561261e5761261d61252f565b5b6126298482856125e0565b509392505050565b600082601f8301126126465761264561252a565b5b81356126568482602086016125ef565b91505092915050565b600067ffffffffffffffff82111561267a57612679612534565b5b602082029050602081019050919050565b600080fd5b60006126a361269e8461265f565b612594565b905080838252602082019050602084028301858111156126c6576126c561268b565b5b835b8181101561270d57803567ffffffffffffffff8111156126eb576126ea61252a565b5b8086016126f88982612631565b855260208501945050506020810190506126c8565b5050509392505050565b600082601f83011261272c5761272b61252a565b5b813561273c848260208601612690565b91505092915050565b600067ffffffffffffffff8211156127605761275f612534565b5b602082029050602081019050919050565b600061278461277f84612745565b612594565b905080838252602082019050602084028301858111156127a7576127a661268b565b5b835b818110156127d057806127bc8882611ce5565b8452602084019350506020810190506127a9565b5050509392505050565b600082601f8301126127ef576127ee61252a565b5b81356127ff848260208601612771565b91505092915050565b60008060008060008060c0878903121561282557612824611cc4565b5b600087013567ffffffffffffffff81111561284357612842611cc9565b5b61284f89828a01612631565b965050602087013567ffffffffffffffff8111156128705761286f611cc9565b5b61287c89828a01612631565b955050604087013567ffffffffffffffff81111561289d5761289c611cc9565b5b6128a989828a01612717565b945050606087013567ffffffffffffffff8111156128ca576128c9611cc9565b5b6128d689828a016127da565b93505060806128e789828a01611e02565b92505060a06128f889828a01611ce5565b9150509295509295509295565b7f4e487b7100000000000000000000000000000000000000000000000000000000600052603260045260246000fd5b7f4e487b7100000000000000000000000000000000000000000000000000000000600052602260045260246000fd5b6000600282049050600182168061297b57607f821691505b60208210810361298e5761298d612934565b5b50919050565b7f4e487b7100000000000000000000000000000000000000000000000000000000600052601160045260246000fd5b60006129ce82611c86565b91507fffffffffffffffffffffffffffffffffffffffffffffffffffffffffffffffff8203612a00576129ff612994565b5b600182019050919050565b7f4e6f7420636f6e7472616374206f776e65720000000000000000000000000000600082015250565b6000612a41601283612230565b9150612a4c82612a0b565b602082019050919050565b60006020820190508181036000830152612a7081612a34565b9050919050565b600081519050612a8681611cce565b92915050565b600060208284031215612aa257612aa1611cc4565b5b6000612ab084828501612a77565b91505092915050565b6000604082019050612ace600083018561236f565b612adb6020830184611c90565b9392505050565b60008115159050919050565b612af781612ae2565b8114612b0257600080fd5b50565b600081519050612b1481612aee565b92915050565b600060208284031215612b3057612b2f611cc4565b5b6000612b3e84828501612b05565b91505092915050565b7f5769746864726177616c206661696c6564000000000000000000000000000000600082015250565b6000612b7d601183612230565b9150612b8882612b47565b602082019050919050565b60006020820190508181036000830152612bac81612b70565b9050919050565b7f46656520746f6f20686967680000000000000000000000000000000000000000600082015250565b6000612be9600c83612230565b9150612bf482612bb3565b602082019050919050565b60006020820190508181036000830152612c1881612bdc565b9050919050565b7f4f6e6c7920696e766f6963652063726561746f722063616e2064656c65746500600082015250565b6000612c55601f83612230565b9150612c6082612c1f565b602082019050919050565b60006020820190508181036000830152612c8481612c48565b9050919050565b7f4f6e6c792070656e64696e6720696e766f696365732063616e2062652064656c60008201527f6574656400000000000000000000000000000000000000000000000000000000602082015250565b6000612ce7602483612230565b9150612cf282612c8b565b604082019050919050565b60006020820190508181036000830152612d1681612cda565b9050919050565b6000612d2882611c86565b9150612d3383611c86565b9250828203905081811115612d4b57612d4a612994565b5b92915050565b7f4e487b7100000000000000000000000000000000000000000000000000000000600052603160045260246000fd5b7f496e766f696365206e6f742070617961626c6500000000000000000000000000600082015250565b6000612db6601383612230565b9150612dc182612d80565b602082019050919050565b60006020820190508181036000830152612de581612da9565b9050919050565b7f496e766f69636520657870697265640000000000000000000000000000000000600082015250565b6000612e22600f83612230565b9150612e2d82612dec565b602082019050919050565b60006020820190508181036000830152612e5181612e15565b9050919050565b6000612e6382611c86565b9150612e6e83611c86565b9250828202612e7c81611c86565b91508282048414831517612e9357612e92612994565b5b5092915050565b7f4e487b7100000000000000000000000000000000000000000000000000000000600052601260045260246000fd5b6000612ed482611c86565b9150612edf83611c86565b925082612eef57612eee612e9a565b5b828204905092915050565b6000606082019050612f0f600083018661236f565b612f1c602083018561236f565b612f296040830184611c90565b949350505050565b7f5061796d656e74206661696c6564000000000000000000000000000000000000600082015250565b6000612f67600e83612230565b9150612f7282612f31565b602082019050919050565b60006020820190508181036000830152612f9681612f5a565b9050919050565b7f43726561746f72207061796d656e74206661696c656400000000000000000000600082015250565b6000612fd3601683612230565b9150612fde82612f9d565b602082019050919050565b6000602082019050818103600083015261300281612fc6565b9050919050565b7f466565207061796d656e74206661696c65640000000000000000000000000000600082015250565b600061303f601283612230565b915061304a82613009565b602082019050919050565b6000602082019050818103600083015261306e81613032565b9050919050565b600060408201905061308a6000830185611c90565b6130976020830184611c90565b9392505050565b7f4974656d7320616e6420707269636573206c656e677468206d69736d61746368600082015250565b60006130d4602083612230565b91506130df8261309e565b602082019050919050565b60006020820190508181036000830152613103816130c7565b9050919050565b7f496e76616c696420647565206461746500000000000000000000000000000000600082015250565b6000613140601083612230565b915061314b8261310a565b602082019050919050565b6000602082019050818103600083015261316f81613133565b9050919050565b600061318182611c86565b915061318c83611c86565b92508282019050808211156131a4576131a3612994565b5b92915050565b60008190508160005260206000209050919050565b60006020601f8301049050919050565b600082821b905092915050565b60006008830261320c7fffffffffffffffffffffffffffffffffffffffffffffffffffffffffffffffff826131cf565b61321686836131cf565b95508019841693508086168417925050509392505050565b600061324961324461323f84611c86565b612418565b611c86565b9050919050565b6000819050919050565b6132638361322e565b61327761326f82613250565b8484546131dc565b825550505050565b600090565b61328c61327f565b61329781848461325a565b505050565b5b818110156132bb576132b0600082613284565b60018101905061329d565b5050565b601f821115613300576132d1816131aa565b6132da846131bf565b810160208510156132e9578190505b6132fd6132f5856131bf565b83018261329c565b50505b505050565b600082821c905092915050565b600061332360001984600802613305565b1980831691505092915050565b600061333c8383613312565b9150826002028217905092915050565b61335582611e7f565b67ffffffffffffffff81111561336e5761336d612534565b5b6133788254612963565b6133838282856132bf565b600060209050601f8311600181146133b657600084156133a4578287015190505b6133ae8582613330565b865550613416565b601f1984166133c4866131aa565b60005b828110156133ec578489015182556001820191506020850194506020810190506133c7565b868310156134095784890151613405601f891682613312565b8355505b6001600288020188555050505b50505050505056fea264697066735822122033b74f17287b67394ad5ea07c574104f6602ddf477da01112a210c8878adf56e64736f6c634300081c0033",
  "linkReferences": {},
  "deployedLinkReferences": {}
}